{
  "contractName": "TreeSpotNFT",
  "abi": [
    {
      "inputs": [],
      "stateMutability": "nonpayable",
      "type": "constructor"
    },
    {
      "anonymous": false,
      "inputs": [
        {
          "indexed": true,
          "internalType": "address",
          "name": "owner",
          "type": "address"
        },
        {
          "indexed": true,
          "internalType": "address",
          "name": "approved",
          "type": "address"
        },
        {
          "indexed": true,
          "internalType": "uint256",
          "name": "tokenId",
          "type": "uint256"
        }
      ],
      "name": "Approval",
      "type": "event"
    },
    {
      "anonymous": false,
      "inputs": [
        {
          "indexed": true,
          "internalType": "address",
          "name": "owner",
          "type": "address"
        },
        {
          "indexed": true,
          "internalType": "address",
          "name": "operator",
          "type": "address"
        },
        {
          "indexed": false,
          "internalType": "bool",
          "name": "approved",
          "type": "bool"
        }
      ],
      "name": "ApprovalForAll",
      "type": "event"
    },
    {
      "anonymous": false,
      "inputs": [
        {
          "indexed": false,
          "internalType": "address",
          "name": "user",
          "type": "address"
        },
        {
          "indexed": false,
          "internalType": "uint256",
          "name": "tokenId",
          "type": "uint256"
        }
      ],
      "name": "NewTreeSpotNFTMinted",
      "type": "event"
    },
    {
      "anonymous": false,
      "inputs": [
        {
          "indexed": true,
          "internalType": "address",
          "name": "previousOwner",
          "type": "address"
        },
        {
          "indexed": true,
          "internalType": "address",
          "name": "newOwner",
          "type": "address"
        }
      ],
      "name": "OwnershipTransferred",
      "type": "event"
    },
    {
      "anonymous": false,
      "inputs": [
        {
          "indexed": true,
          "internalType": "address",
          "name": "from",
          "type": "address"
        },
        {
          "indexed": true,
          "internalType": "address",
          "name": "to",
          "type": "address"
        },
        {
          "indexed": true,
          "internalType": "uint256",
          "name": "tokenId",
          "type": "uint256"
        }
      ],
      "name": "Transfer",
      "type": "event"
    },
    {
      "inputs": [],
      "name": "MAX_SUPPLY",
      "outputs": [
        {
          "internalType": "uint256",
          "name": "",
          "type": "uint256"
        }
      ],
      "stateMutability": "view",
      "type": "function"
    },
    {
      "inputs": [
        {
          "internalType": "address",
          "name": "to",
          "type": "address"
        },
        {
          "internalType": "uint256",
          "name": "tokenId",
          "type": "uint256"
        }
      ],
      "name": "approve",
      "outputs": [],
      "stateMutability": "nonpayable",
      "type": "function"
    },
    {
      "inputs": [
        {
          "internalType": "address",
          "name": "owner",
          "type": "address"
        }
      ],
      "name": "balanceOf",
      "outputs": [
        {
          "internalType": "uint256",
          "name": "",
          "type": "uint256"
        }
      ],
      "stateMutability": "view",
      "type": "function"
    },
    {
      "inputs": [
        {
          "internalType": "uint256",
          "name": "tokenId",
          "type": "uint256"
        }
      ],
      "name": "getApproved",
      "outputs": [
        {
          "internalType": "address",
          "name": "",
          "type": "address"
        }
      ],
      "stateMutability": "view",
      "type": "function"
    },
    {
      "inputs": [
        {
          "internalType": "address",
          "name": "owner",
          "type": "address"
        },
        {
          "internalType": "address",
          "name": "operator",
          "type": "address"
        }
      ],
      "name": "isApprovedForAll",
      "outputs": [
        {
          "internalType": "bool",
          "name": "",
          "type": "bool"
        }
      ],
      "stateMutability": "view",
      "type": "function"
    },
    {
      "inputs": [],
      "name": "name",
      "outputs": [
        {
          "internalType": "string",
          "name": "",
          "type": "string"
        }
      ],
      "stateMutability": "view",
      "type": "function"
    },
    {
      "inputs": [],
      "name": "owner",
      "outputs": [
        {
          "internalType": "address",
          "name": "",
          "type": "address"
        }
      ],
      "stateMutability": "view",
      "type": "function"
    },
    {
      "inputs": [
        {
          "internalType": "uint256",
          "name": "tokenId",
          "type": "uint256"
        }
      ],
      "name": "ownerOf",
      "outputs": [
        {
          "internalType": "address",
          "name": "",
          "type": "address"
        }
      ],
      "stateMutability": "view",
      "type": "function"
    },
    {
      "inputs": [],
      "name": "renounceOwnership",
      "outputs": [],
      "stateMutability": "nonpayable",
      "type": "function"
    },
    {
      "inputs": [
        {
          "internalType": "address",
          "name": "from",
          "type": "address"
        },
        {
          "internalType": "address",
          "name": "to",
          "type": "address"
        },
        {
          "internalType": "uint256",
          "name": "tokenId",
          "type": "uint256"
        }
      ],
      "name": "safeTransferFrom",
      "outputs": [],
      "stateMutability": "nonpayable",
      "type": "function"
    },
    {
      "inputs": [
        {
          "internalType": "address",
          "name": "from",
          "type": "address"
        },
        {
          "internalType": "address",
          "name": "to",
          "type": "address"
        },
        {
          "internalType": "uint256",
          "name": "tokenId",
          "type": "uint256"
        },
        {
          "internalType": "bytes",
          "name": "_data",
          "type": "bytes"
        }
      ],
      "name": "safeTransferFrom",
      "outputs": [],
      "stateMutability": "nonpayable",
      "type": "function"
    },
    {
      "inputs": [
        {
          "internalType": "address",
          "name": "operator",
          "type": "address"
        },
        {
          "internalType": "bool",
          "name": "approved",
          "type": "bool"
        }
      ],
      "name": "setApprovalForAll",
      "outputs": [],
      "stateMutability": "nonpayable",
      "type": "function"
    },
    {
      "inputs": [
        {
          "internalType": "bytes4",
          "name": "interfaceId",
          "type": "bytes4"
        }
      ],
      "name": "supportsInterface",
      "outputs": [
        {
          "internalType": "bool",
          "name": "",
          "type": "bool"
        }
      ],
      "stateMutability": "view",
      "type": "function"
    },
    {
      "inputs": [],
      "name": "symbol",
      "outputs": [
        {
          "internalType": "string",
          "name": "",
          "type": "string"
        }
      ],
      "stateMutability": "view",
      "type": "function"
    },
    {
      "inputs": [
        {
          "internalType": "uint256",
          "name": "index",
          "type": "uint256"
        }
      ],
      "name": "tokenByIndex",
      "outputs": [
        {
          "internalType": "uint256",
          "name": "",
          "type": "uint256"
        }
      ],
      "stateMutability": "view",
      "type": "function"
    },
    {
      "inputs": [
        {
          "internalType": "address",
          "name": "owner",
          "type": "address"
        },
        {
          "internalType": "uint256",
          "name": "index",
          "type": "uint256"
        }
      ],
      "name": "tokenOfOwnerByIndex",
      "outputs": [
        {
          "internalType": "uint256",
          "name": "",
          "type": "uint256"
        }
      ],
      "stateMutability": "view",
      "type": "function"
    },
    {
      "inputs": [
        {
          "internalType": "uint256",
          "name": "tokenId",
          "type": "uint256"
        }
      ],
      "name": "tokenURI",
      "outputs": [
        {
          "internalType": "string",
          "name": "",
          "type": "string"
        }
      ],
      "stateMutability": "view",
      "type": "function"
    },
    {
      "inputs": [],
      "name": "totalSupply",
      "outputs": [
        {
          "internalType": "uint256",
          "name": "",
          "type": "uint256"
        }
      ],
      "stateMutability": "view",
      "type": "function"
    },
    {
      "inputs": [
        {
          "internalType": "address",
          "name": "from",
          "type": "address"
        },
        {
          "internalType": "address",
          "name": "to",
          "type": "address"
        },
        {
          "internalType": "uint256",
          "name": "tokenId",
          "type": "uint256"
        }
      ],
      "name": "transferFrom",
      "outputs": [],
      "stateMutability": "nonpayable",
      "type": "function"
    },
    {
      "inputs": [
        {
          "internalType": "address",
          "name": "newOwner",
          "type": "address"
        }
      ],
      "name": "transferOwnership",
      "outputs": [],
      "stateMutability": "nonpayable",
      "type": "function"
    },
    {
      "inputs": [
        {
          "internalType": "uint256",
          "name": "maxNftSupply",
          "type": "uint256"
        }
      ],
      "name": "setMaxSupply",
      "outputs": [],
      "stateMutability": "nonpayable",
      "type": "function"
    },
    {
      "inputs": [
        {
          "internalType": "string",
          "name": "baseURI",
          "type": "string"
        }
      ],
      "name": "setBaseURI",
      "outputs": [],
      "stateMutability": "nonpayable",
      "type": "function"
    },
    {
      "inputs": [
        {
          "internalType": "uint256",
          "name": "tokenId",
          "type": "uint256"
        },
        {
          "internalType": "string",
          "name": "tokenURI",
          "type": "string"
        }
      ],
      "name": "setTokenURI",
      "outputs": [],
      "stateMutability": "nonpayable",
      "type": "function"
    },
    {
      "inputs": [
        {
          "internalType": "uint256",
          "name": "tokenId",
          "type": "uint256"
        }
      ],
      "name": "tokenName",
      "outputs": [
        {
          "internalType": "string",
          "name": "",
          "type": "string"
        }
      ],
      "stateMutability": "view",
      "type": "function"
    },
    {
      "inputs": [
        {
          "internalType": "uint256",
          "name": "tokenId",
          "type": "uint256"
        },
        {
          "internalType": "string",
          "name": "_tokenName",
          "type": "string"
        }
      ],
      "name": "setTokenName",
      "outputs": [],
      "stateMutability": "nonpayable",
      "type": "function"
    },
    {
      "inputs": [
        {
          "internalType": "string",
          "name": "_tokenName",
          "type": "string"
        }
      ],
      "name": "mintNFT",
      "outputs": [],
      "stateMutability": "nonpayable",
      "type": "function"
    }
  ],
  "bytecode": "0x6080604052600f600d553480156200001657600080fd5b506040518060400160405280600b81526020017f5472656553706f744e46540000000000000000000000000000000000000000008152506040518060400160405280600381526020017f54534e000000000000000000000000000000000000000000000000000000000081525081600090805190602001906200009b929190620001bd565b508060019080519060200190620000b4929190620001bd565b505050620000e9620000d4620000ef640100000000026401000000009004565b620000f7640100000000026401000000009004565b620002d2565b600033905090565b6000600c60009054906101000a900473ffffffffffffffffffffffffffffffffffffffff16905081600c60006101000a81548173ffffffffffffffffffffffffffffffffffffffff021916908373ffffffffffffffffffffffffffffffffffffffff1602179055508173ffffffffffffffffffffffffffffffffffffffff168173ffffffffffffffffffffffffffffffffffffffff167f8be0079c531659141344cd1fd0a4f28419497f9722a3daafe3b4186f6b6457e060405160405180910390a35050565b828054620001cb906200026d565b90600052602060002090601f016020900481019282620001ef57600085556200023b565b82601f106200020a57805160ff19168380011785556200023b565b828001600101855582156200023b579182015b828111156200023a5782518255916020019190600101906200021d565b5b5090506200024a91906200024e565b5090565b5b80821115620002695760008160009055506001016200024f565b5090565b600060028204905060018216806200028657607f821691505b602082108114156200029d576200029c620002a3565b5b50919050565b7f4e487b7100000000000000000000000000000000000000000000000000000000600052602260045260246000fd5b613d1880620002e26000396000f3fe608060405234801561001057600080fd5b50600436106101ab576000357c0100000000000000000000000000000000000000000000000000000000900480636f8b44b0116100fb578063b88d4fde116100b4578063e725f8771161008e578063e725f8771461049c578063e985e9c5146104cc578063f2fde38b146104fc578063fb37e88314610518576101ab565b8063b88d4fde14610434578063c87b56dd14610450578063cdb0e89e14610480576101ab565b80636f8b44b01461038657806370a08231146103a2578063715018a6146103d25780638da5cb5b146103dc57806395d89b41146103fa578063a22cb46514610418576101ab565b806323b872dd1161016857806342842e0e1161014257806342842e0e146102ee5780634f6ccce71461030a57806355f804b31461033a5780636352211e14610356576101ab565b806323b872dd146102845780632f745c59146102a057806332cb6b0c146102d0576101ab565b806301ffc9a7146101b057806306fdde03146101e0578063081812fc146101fe578063095ea7b31461022e578063162094c41461024a57806318160ddd14610266575b600080fd5b6101ca60048036038101906101c59190612b84565b610534565b6040516101d791906135e5565b60405180910390f35b6101e86105ae565b6040516101f59190613600565b60405180910390f35b61021860048036038101906102139190612c17565b610640565b6040516102259190613555565b60405180910390f35b61024860048036038101906102439190612b48565b6106c5565b005b610264600480360381019061025f9190612c40565b6107dd565b005b61026e61083b565b60405161027b91906138a2565b60405180910390f35b61029e60048036038101906102999190612a42565b610848565b005b6102ba60048036038101906102b59190612b48565b6108a8565b6040516102c791906138a2565b60405180910390f35b6102d861094d565b6040516102e591906138a2565b60405180910390f35b61030860048036038101906103039190612a42565b610953565b005b610324600480360381019061031f9190612c17565b610973565b60405161033191906138a2565b60405180910390f35b610354600480360381019061034f9190612bd6565b610a0a565b005b610370600480360381019061036b9190612c17565b610a92565b60405161037d9190613555565b60405180910390f35b6103a0600480360381019061039b9190612c17565b610b44565b005b6103bc60048036038101906103b791906129dd565b610bca565b6040516103c991906138a2565b60405180910390f35b6103da610c82565b005b6103e4610d0a565b6040516103f19190613555565b60405180910390f35b610402610d34565b60405161040f9190613600565b60405180910390f35b610432600480360381019061042d9190612b0c565b610dc6565b005b61044e60048036038101906104499190612a91565b610f47565b005b61046a60048036038101906104659190612c17565b610fa9565b6040516104779190613600565b60405180910390f35b61049a60048036038101906104959190612c40565b61119d565b005b6104b660048036038101906104b19190612c17565b611261565b6040516104c39190613600565b60405180910390f35b6104e660048036038101906104e19190612a06565b61134e565b6040516104f391906135e5565b60405180910390f35b610516600480360381019061051191906129dd565b6113e2565b005b610532600480360381019061052d9190612bd6565b6114da565b005b60007f780e9d63000000000000000000000000000000000000000000000000000000007bffffffffffffffffffffffffffffffffffffffffffffffffffffffff1916827bffffffffffffffffffffffffffffffffffffffffffffffffffffffff191614806105a757506105a682611618565b5b9050919050565b6060600080546105bd90613b0d565b80601f01602080910402602001604051908101604052809291908181526020018280546105e990613b0d565b80156106365780601f1061060b57610100808354040283529160200191610636565b820191906000526020600020905b81548152906001019060200180831161061957829003601f168201915b5050505050905090565b600061064b826116fa565b61068a576040517f08c379a000000000000000000000000000000000000000000000000000000000815260040161068190613782565b60405180910390fd5b6004600083815260200190815260200160002060009054906101000a900473ffffffffffffffffffffffffffffffffffffffff169050919050565b60006106d082610a92565b90508073ffffffffffffffffffffffffffffffffffffffff168373ffffffffffffffffffffffffffffffffffffffff161415610741576040517f08c379a000000000000000000000000000000000000000000000000000000000815260040161073890613822565b60405180910390fd5b8073ffffffffffffffffffffffffffffffffffffffff16610760611766565b73ffffffffffffffffffffffffffffffffffffffff16148061078f575061078e81610789611766565b61134e565b5b6107ce576040517f08c379a00000000000000000000000000000000000000000000000000000000081526004016107c590613702565b60405180910390fd5b6107d8838361176e565b505050565b6107ee6107e8611766565b83611827565b61082d576040517f08c379a000000000000000000000000000000000000000000000000000000000815260040161082490613842565b60405180910390fd5b6108378282611905565b5050565b6000600a80549050905090565b610859610853611766565b82611827565b610898576040517f08c379a000000000000000000000000000000000000000000000000000000000815260040161088f90613842565b60405180910390fd5b6108a3838383611979565b505050565b60006108b383610bca565b82106108f4576040517f08c379a00000000000000000000000000000000000000000000000000000000081526004016108eb90613622565b60405180910390fd5b600860008473ffffffffffffffffffffffffffffffffffffffff1673ffffffffffffffffffffffffffffffffffffffff168152602001908152602001600020600083815260200190815260200160002054905092915050565b600d5481565b61096e83838360405180602001604052806000815250610f47565b505050565b600061097d61083b565b82106109be576040517f08c379a00000000000000000000000000000000000000000000000000000000081526004016109b590613862565b60405180910390fd5b600a82815481106109f8577f4e487b7100000000000000000000000000000000000000000000000000000000600052603260045260246000fd5b90600052602060002001549050919050565b610a12611766565b73ffffffffffffffffffffffffffffffffffffffff16610a30610d0a565b73ffffffffffffffffffffffffffffffffffffffff1614610a86576040517f08c379a0000000000000000000000000000000000000000000000000000000008152600401610a7d906137c2565b60405180910390fd5b610a8f81611bd5565b50565b6000806002600084815260200190815260200160002060009054906101000a900473ffffffffffffffffffffffffffffffffffffffff169050600073ffffffffffffffffffffffffffffffffffffffff168173ffffffffffffffffffffffffffffffffffffffff161415610b3b576040517f08c379a0000000000000000000000000000000000000000000000000000000008152600401610b3290613742565b60405180910390fd5b80915050919050565b610b4c611766565b73ffffffffffffffffffffffffffffffffffffffff16610b6a610d0a565b73ffffffffffffffffffffffffffffffffffffffff1614610bc0576040517f08c379a0000000000000000000000000000000000000000000000000000000008152600401610bb7906137c2565b60405180910390fd5b80600d8190555050565b60008073ffffffffffffffffffffffffffffffffffffffff168273ffffffffffffffffffffffffffffffffffffffff161415610c3b576040517f08c379a0000000000000000000000000000000000000000000000000000000008152600401610c3290613722565b60405180910390fd5b600360008373ffffffffffffffffffffffffffffffffffffffff1673ffffffffffffffffffffffffffffffffffffffff168152602001908152602001600020549050919050565b610c8a611766565b73ffffffffffffffffffffffffffffffffffffffff16610ca8610d0a565b73ffffffffffffffffffffffffffffffffffffffff1614610cfe576040517f08c379a0000000000000000000000000000000000000000000000000000000008152600401610cf5906137c2565b60405180910390fd5b610d086000611bef565b565b6000600c60009054906101000a900473ffffffffffffffffffffffffffffffffffffffff16905090565b606060018054610d4390613b0d565b80601f0160208091040260200160405190810160405280929190818152602001828054610d6f90613b0d565b8015610dbc5780601f10610d9157610100808354040283529160200191610dbc565b820191906000526020600020905b815481529060010190602001808311610d9f57829003601f168201915b5050505050905090565b610dce611766565b73ffffffffffffffffffffffffffffffffffffffff168273ffffffffffffffffffffffffffffffffffffffff161415610e3c576040517f08c379a0000000000000000000000000000000000000000000000000000000008152600401610e33906136c2565b60405180910390fd5b8060056000610e49611766565b73ffffffffffffffffffffffffffffffffffffffff1673ffffffffffffffffffffffffffffffffffffffff16815260200190815260200160002060008473ffffffffffffffffffffffffffffffffffffffff1673ffffffffffffffffffffffffffffffffffffffff16815260200190815260200160002060006101000a81548160ff0219169083151502179055508173ffffffffffffffffffffffffffffffffffffffff16610ef6611766565b73ffffffffffffffffffffffffffffffffffffffff167f17307eab39ab6107e8899845ad3d59bd9653f200f220920489ca2b5937696c3183604051610f3b91906135e5565b60405180910390a35050565b610f58610f52611766565b83611827565b610f97576040517f08c379a0000000000000000000000000000000000000000000000000000000008152600401610f8e90613842565b60405180910390fd5b610fa384848484611cb5565b50505050565b6060610fb4826116fa565b610ff3576040517f08c379a0000000000000000000000000000000000000000000000000000000008152600401610fea90613802565b60405180910390fd5b600060066000848152602001908152602001600020805461101390613b0d565b80601f016020809104026020016040519081016040528092919081815260200182805461103f90613b0d565b801561108c5780601f106110615761010080835404028352916020019161108c565b820191906000526020600020905b81548152906001019060200180831161106f57829003601f168201915b505050505090506000600780546110a290613b0d565b80601f01602080910402602001604051908101604052809291908181526020018280546110ce90613b0d565b801561111b5780601f106110f05761010080835404028352916020019161111b565b820191906000526020600020905b8154815290600101906020018083116110fe57829003601f168201915b50505050509050600081511415611136578192505050611198565b60008251111561114a578192505050611198565b8061115485611d11565b6040516020016111649190613533565b60405160208183030381529060405260405160200161118492919061350f565b604051602081830303815290604052925050505b919050565b6111ae6111a8611766565b83611827565b6111ed576040517f08c379a00000000000000000000000000000000000000000000000000000000081526004016111e490613842565b60405180910390fd5b6111f6826116fa565b611235576040517f08c379a000000000000000000000000000000000000000000000000000000000815260040161122c906137a2565b60405180910390fd5b80600e6000848152602001908152602001600020908051906020019061125c929190612801565b505050565b606061126c826116fa565b6112ab576040517f08c379a00000000000000000000000000000000000000000000000000000000081526004016112a290613802565b60405180910390fd5b600e600083815260200190815260200160002080546112c990613b0d565b80601f01602080910402602001604051908101604052809291908181526020018280546112f590613b0d565b80156113425780601f1061131757610100808354040283529160200191611342565b820191906000526020600020905b81548152906001019060200180831161132557829003601f168201915b50505050509050919050565b6000600560008473ffffffffffffffffffffffffffffffffffffffff1673ffffffffffffffffffffffffffffffffffffffff16815260200190815260200160002060008373ffffffffffffffffffffffffffffffffffffffff1673ffffffffffffffffffffffffffffffffffffffff16815260200190815260200160002060009054906101000a900460ff16905092915050565b6113ea611766565b73ffffffffffffffffffffffffffffffffffffffff16611408610d0a565b73ffffffffffffffffffffffffffffffffffffffff161461145e576040517f08c379a0000000000000000000000000000000000000000000000000000000008152600401611455906137c2565b60405180910390fd5b600073ffffffffffffffffffffffffffffffffffffffff168173ffffffffffffffffffffffffffffffffffffffff1614156114ce576040517f08c379a00000000000000000000000000000000000000000000000000000000081526004016114c590613662565b60405180910390fd5b6114d781611bef565b50565b6114e2611766565b73ffffffffffffffffffffffffffffffffffffffff16611500610d0a565b73ffffffffffffffffffffffffffffffffffffffff1614611556576040517f08c379a000000000000000000000000000000000000000000000000000000000815260040161154d906137c2565b60405180910390fd5b600d5461156161083b565b106115a1576040517f08c379a000000000000000000000000000000000000000000000000000000000815260040161159890613882565b60405180910390fd5b600060016115ad61083b565b6115b7919061399c565b90506115ca6115c4611766565b82611edd565b6115d4818361119d565b7f13c2a480d2bf9782c52113903fc1c40070e729a3d0079990803ea7dcc8f5f3716115fd611766565b8260405161160c9291906135bc565b60405180910390a15050565b60007f80ac58cd000000000000000000000000000000000000000000000000000000007bffffffffffffffffffffffffffffffffffffffffffffffffffffffff1916827bffffffffffffffffffffffffffffffffffffffffffffffffffffffff191614806116e357507f5b5e139f000000000000000000000000000000000000000000000000000000007bffffffffffffffffffffffffffffffffffffffffffffffffffffffff1916827bffffffffffffffffffffffffffffffffffffffffffffffffffffffff1916145b806116f357506116f282611efb565b5b9050919050565b60008073ffffffffffffffffffffffffffffffffffffffff166002600084815260200190815260200160002060009054906101000a900473ffffffffffffffffffffffffffffffffffffffff1673ffffffffffffffffffffffffffffffffffffffff1614159050919050565b600033905090565b816004600083815260200190815260200160002060006101000a81548173ffffffffffffffffffffffffffffffffffffffff021916908373ffffffffffffffffffffffffffffffffffffffff160217905550808273ffffffffffffffffffffffffffffffffffffffff166117e183610a92565b73ffffffffffffffffffffffffffffffffffffffff167f8c5be1e5ebec7d5bd14f71427d1e84f3dd0314c0f7b2291e5b200ac8c7c3b92560405160405180910390a45050565b6000611832826116fa565b611871576040517f08c379a0000000000000000000000000000000000000000000000000000000008152600401611868906136e2565b60405180910390fd5b600061187c83610a92565b90508073ffffffffffffffffffffffffffffffffffffffff168473ffffffffffffffffffffffffffffffffffffffff1614806118eb57508373ffffffffffffffffffffffffffffffffffffffff166118d384610640565b73ffffffffffffffffffffffffffffffffffffffff16145b806118fc57506118fb818561134e565b5b91505092915050565b61190e826116fa565b61194d576040517f08c379a0000000000000000000000000000000000000000000000000000000008152600401611944906137a2565b60405180910390fd5b80600660008481526020019081526020016000209080519060200190611974929190612801565b505050565b8273ffffffffffffffffffffffffffffffffffffffff1661199982610a92565b73ffffffffffffffffffffffffffffffffffffffff16146119ef576040517f08c379a00000000000000000000000000000000000000000000000000000000081526004016119e6906137e2565b60405180910390fd5b600073ffffffffffffffffffffffffffffffffffffffff168273ffffffffffffffffffffffffffffffffffffffff161415611a5f576040517f08c379a0000000000000000000000000000000000000000000000000000000008152600401611a56906136a2565b60405180910390fd5b611a6a838383611f65565b611a7560008261176e565b6001600360008573ffffffffffffffffffffffffffffffffffffffff1673ffffffffffffffffffffffffffffffffffffffff1681526020019081526020016000206000828254611ac59190613a23565b925050819055506001600360008473ffffffffffffffffffffffffffffffffffffffff1673ffffffffffffffffffffffffffffffffffffffff1681526020019081526020016000206000828254611b1c919061399c565b92505081905550816002600083815260200190815260200160002060006101000a81548173ffffffffffffffffffffffffffffffffffffffff021916908373ffffffffffffffffffffffffffffffffffffffff160217905550808273ffffffffffffffffffffffffffffffffffffffff168473ffffffffffffffffffffffffffffffffffffffff167fddf252ad1be2c89b69c2b068fc378daa952ba7f163c4a11628f55a4df523b3ef60405160405180910390a4505050565b8060079080519060200190611beb929190612801565b5050565b6000600c60009054906101000a900473ffffffffffffffffffffffffffffffffffffffff16905081600c60006101000a81548173ffffffffffffffffffffffffffffffffffffffff021916908373ffffffffffffffffffffffffffffffffffffffff1602179055508173ffffffffffffffffffffffffffffffffffffffff168173ffffffffffffffffffffffffffffffffffffffff167f8be0079c531659141344cd1fd0a4f28419497f9722a3daafe3b4186f6b6457e060405160405180910390a35050565b611cc0848484611979565b611ccc84848484612079565b611d0b576040517f08c379a0000000000000000000000000000000000000000000000000000000008152600401611d0290613642565b60405180910390fd5b50505050565b60606000821415611d59576040518060400160405280600181526020017f30000000000000000000000000000000000000000000000000000000000000008152509050611ed8565b600082905060005b60008214611d8b578080611d7490613b3f565b915050600a82611d8491906139f2565b9150611d61565b60008167ffffffffffffffff811115611dcd577f4e487b7100000000000000000000000000000000000000000000000000000000600052604160045260246000fd5b6040519080825280601f01601f191660200182016040528015611dff5781602001600182028036833780820191505090505b5090505b60008514611ed157600182611e189190613a23565b9150600a85611e279190613b88565b6030611e33919061399c565b7f010000000000000000000000000000000000000000000000000000000000000002818381518110611e8e577f4e487b7100000000000000000000000000000000000000000000000000000000600052603260045260246000fd5b60200101907effffffffffffffffffffffffffffffffffffffffffffffffffffffffffffff1916908160001a905350600a85611eca91906139f2565b9450611e03565b8093505050505b919050565b611ef7828260405180602001604052806000815250612248565b5050565b60007f01ffc9a7000000000000000000000000000000000000000000000000000000007bffffffffffffffffffffffffffffffffffffffffffffffffffffffff1916827bffffffffffffffffffffffffffffffffffffffffffffffffffffffff1916149050919050565b611f708383836122a3565b600073ffffffffffffffffffffffffffffffffffffffff168373ffffffffffffffffffffffffffffffffffffffff161415611fb357611fae816122a8565b611ff2565b8173ffffffffffffffffffffffffffffffffffffffff168373ffffffffffffffffffffffffffffffffffffffff1614611ff157611ff083826122f1565b5b5b600073ffffffffffffffffffffffffffffffffffffffff168273ffffffffffffffffffffffffffffffffffffffff161415612035576120308161245e565b612074565b8273ffffffffffffffffffffffffffffffffffffffff168273ffffffffffffffffffffffffffffffffffffffff16146120735761207282826125a1565b5b5b505050565b600061209a8473ffffffffffffffffffffffffffffffffffffffff16612620565b1561223b578373ffffffffffffffffffffffffffffffffffffffff1663150b7a026120c3611766565b8786866040518563ffffffff167c01000000000000000000000000000000000000000000000000000000000281526004016121019493929190613570565b602060405180830381600087803b15801561211b57600080fd5b505af192505050801561214c57506040513d601f19601f820116820180604052508101906121499190612bad565b60015b6121cf573d806000811461217c576040519150601f19603f3d011682016040523d82523d6000602084013e612181565b606091505b506000815114156121c7576040517f08c379a00000000000000000000000000000000000000000000000000000000081526004016121be90613642565b60405180910390fd5b805181602001fd5b63150b7a027c0100000000000000000000000000000000000000000000000000000000027bffffffffffffffffffffffffffffffffffffffffffffffffffffffff1916817bffffffffffffffffffffffffffffffffffffffffffffffffffffffff191614915050612240565b600190505b949350505050565b6122528383612633565b61225f6000848484612079565b61229e576040517f08c379a000000000000000000000000000000000000000000000000000000000815260040161229590613642565b60405180910390fd5b505050565b505050565b600a80549050600b600083815260200190815260200160002081905550600a81908060018154018082558091505060019003906000526020600020016000909190919091505550565b600060016122fe84610bca565b6123089190613a23565b90506000600960008481526020019081526020016000205490508181146123ed576000600860008673ffffffffffffffffffffffffffffffffffffffff1673ffffffffffffffffffffffffffffffffffffffff168152602001908152602001600020600084815260200190815260200160002054905080600860008773ffffffffffffffffffffffffffffffffffffffff1673ffffffffffffffffffffffffffffffffffffffff168152602001908152602001600020600084815260200190815260200160002081905550816009600083815260200190815260200160002081905550505b6009600084815260200190815260200160002060009055600860008573ffffffffffffffffffffffffffffffffffffffff1673ffffffffffffffffffffffffffffffffffffffff16815260200190815260200160002060008381526020019081526020016000206000905550505050565b60006001600a805490506124729190613a23565b90506000600b60008481526020019081526020016000205490506000600a83815481106124c8577f4e487b7100000000000000000000000000000000000000000000000000000000600052603260045260246000fd5b9060005260206000200154905080600a8381548110612510577f4e487b7100000000000000000000000000000000000000000000000000000000600052603260045260246000fd5b906000526020600020018190555081600b600083815260200190815260200160002081905550600b600085815260200190815260200160002060009055600a805480612585577f4e487b7100000000000000000000000000000000000000000000000000000000600052603160045260246000fd5b6001900381819060005260206000200160009055905550505050565b60006125ac83610bca565b905081600860008573ffffffffffffffffffffffffffffffffffffffff1673ffffffffffffffffffffffffffffffffffffffff168152602001908152602001600020600083815260200190815260200160002081905550806009600084815260200190815260200160002081905550505050565b600080823b905060008111915050919050565b600073ffffffffffffffffffffffffffffffffffffffff168273ffffffffffffffffffffffffffffffffffffffff1614156126a3576040517f08c379a000000000000000000000000000000000000000000000000000000000815260040161269a90613762565b60405180910390fd5b6126ac816116fa565b156126ec576040517f08c379a00000000000000000000000000000000000000000000000000000000081526004016126e390613682565b60405180910390fd5b6126f860008383611f65565b6001600360008473ffffffffffffffffffffffffffffffffffffffff1673ffffffffffffffffffffffffffffffffffffffff1681526020019081526020016000206000828254612748919061399c565b92505081905550816002600083815260200190815260200160002060006101000a81548173ffffffffffffffffffffffffffffffffffffffff021916908373ffffffffffffffffffffffffffffffffffffffff160217905550808273ffffffffffffffffffffffffffffffffffffffff16600073ffffffffffffffffffffffffffffffffffffffff167fddf252ad1be2c89b69c2b068fc378daa952ba7f163c4a11628f55a4df523b3ef60405160405180910390a45050565b82805461280d90613b0d565b90600052602060002090601f01602090048101928261282f5760008555612876565b82601f1061284857805160ff1916838001178555612876565b82800160010185558215612876579182015b8281111561287557825182559160200191906001019061285a565b5b5090506128839190612887565b5090565b5b808211156128a0576000816000905550600101612888565b5090565b60006128b76128b2846138ee565b6138bd565b9050828152602081018484840111156128cf57600080fd5b6128da848285613acb565b509392505050565b60006128f56128f08461391e565b6138bd565b90508281526020810184848401111561290d57600080fd5b612918848285613acb565b509392505050565b60008135905061292f81613c86565b92915050565b60008135905061294481613c9d565b92915050565b60008135905061295981613cb4565b92915050565b60008151905061296e81613cb4565b92915050565b600082601f83011261298557600080fd5b81356129958482602086016128a4565b91505092915050565b600082601f8301126129af57600080fd5b81356129bf8482602086016128e2565b91505092915050565b6000813590506129d781613ccb565b92915050565b6000602082840312156129ef57600080fd5b60006129fd84828501612920565b91505092915050565b60008060408385031215612a1957600080fd5b6000612a2785828601612920565b9250506020612a3885828601612920565b9150509250929050565b600080600060608486031215612a5757600080fd5b6000612a6586828701612920565b9350506020612a7686828701612920565b9250506040612a87868287016129c8565b9150509250925092565b60008060008060808587031215612aa757600080fd5b6000612ab587828801612920565b9450506020612ac687828801612920565b9350506040612ad7878288016129c8565b925050606085013567ffffffffffffffff811115612af457600080fd5b612b0087828801612974565b91505092959194509250565b60008060408385031215612b1f57600080fd5b6000612b2d85828601612920565b9250506020612b3e85828601612935565b9150509250929050565b60008060408385031215612b5b57600080fd5b6000612b6985828601612920565b9250506020612b7a858286016129c8565b9150509250929050565b600060208284031215612b9657600080fd5b6000612ba48482850161294a565b91505092915050565b600060208284031215612bbf57600080fd5b6000612bcd8482850161295f565b91505092915050565b600060208284031215612be857600080fd5b600082013567ffffffffffffffff811115612c0257600080fd5b612c0e8482850161299e565b91505092915050565b600060208284031215612c2957600080fd5b6000612c37848285016129c8565b91505092915050565b60008060408385031215612c5357600080fd5b6000612c61858286016129c8565b925050602083013567ffffffffffffffff811115612c7e57600080fd5b612c8a8582860161299e565b9150509250929050565b612c9d81613a57565b82525050565b612cac81613a69565b82525050565b6000612cbd8261394e565b612cc78185613964565b9350612cd7818560208601613ada565b612ce081613c75565b840191505092915050565b6000612cf68261394e565b612d008185613975565b9350612d10818560208601613ada565b80840191505092915050565b6000612d2782613959565b612d318185613980565b9350612d41818560208601613ada565b612d4a81613c75565b840191505092915050565b6000612d6082613959565b612d6a8185613991565b9350612d7a818560208601613ada565b80840191505092915050565b6000612d93602b83613980565b91507f455243373231456e756d657261626c653a206f776e657220696e646578206f7560008301527f74206f6620626f756e64730000000000000000000000000000000000000000006020830152604082019050919050565b6000612df9603283613980565b91507f4552433732313a207472616e7366657220746f206e6f6e20455243373231526560008301527f63656976657220696d706c656d656e74657200000000000000000000000000006020830152604082019050919050565b6000612e5f602683613980565b91507f4f776e61626c653a206e6577206f776e657220697320746865207a65726f206160008301527f64647265737300000000000000000000000000000000000000000000000000006020830152604082019050919050565b6000612ec5601c83613980565b91507f4552433732313a20746f6b656e20616c7265616479206d696e746564000000006000830152602082019050919050565b6000612f05602483613980565b91507f4552433732313a207472616e7366657220746f20746865207a65726f2061646460008301527f72657373000000000000000000000000000000000000000000000000000000006020830152604082019050919050565b6000612f6b601983613980565b91507f4552433732313a20617070726f766520746f2063616c6c6572000000000000006000830152602082019050919050565b6000612fab602c83613980565b91507f4552433732313a206f70657261746f7220717565727920666f72206e6f6e657860008301527f697374656e7420746f6b656e00000000000000000000000000000000000000006020830152604082019050919050565b6000613011603883613980565b91507f4552433732313a20617070726f76652063616c6c6572206973206e6f74206f7760008301527f6e6572206e6f7220617070726f76656420666f7220616c6c00000000000000006020830152604082019050919050565b6000613077602a83613980565b91507f4552433732313a2062616c616e636520717565727920666f7220746865207a6560008301527f726f2061646472657373000000000000000000000000000000000000000000006020830152604082019050919050565b60006130dd602983613980565b91507f4552433732313a206f776e657220717565727920666f72206e6f6e657869737460008301527f656e7420746f6b656e00000000000000000000000000000000000000000000006020830152604082019050919050565b6000613143602083613980565b91507f4552433732313a206d696e7420746f20746865207a65726f20616464726573736000830152602082019050919050565b6000613183602c83613980565b91507f4552433732313a20617070726f76656420717565727920666f72206e6f6e657860008301527f697374656e7420746f6b656e00000000000000000000000000000000000000006020830152604082019050919050565b60006131e9600583613991565b91507f2e6a736f6e0000000000000000000000000000000000000000000000000000006000830152600582019050919050565b6000613229602c83613980565b91507f4552433732314d657461646174613a2055524920736574206f66206e6f6e657860008301527f697374656e7420746f6b656e00000000000000000000000000000000000000006020830152604082019050919050565b600061328f602083613980565b91507f4f776e61626c653a2063616c6c6572206973206e6f7420746865206f776e65726000830152602082019050919050565b60006132cf602983613980565b91507f4552433732313a207472616e73666572206f6620746f6b656e2074686174206960008301527f73206e6f74206f776e00000000000000000000000000000000000000000000006020830152604082019050919050565b6000613335602f83613980565b91507f4552433732314d657461646174613a2055524920717565727920666f72206e6f60008301527f6e6578697374656e7420746f6b656e00000000000000000000000000000000006020830152604082019050919050565b600061339b602183613980565b91507f4552433732313a20617070726f76616c20746f2063757272656e74206f776e6560008301527f72000000000000000000000000000000000000000000000000000000000000006020830152604082019050919050565b6000613401603183613980565b91507f4552433732313a207472616e736665722063616c6c6572206973206e6f74206f60008301527f776e6572206e6f7220617070726f7665640000000000000000000000000000006020830152604082019050919050565b6000613467602c83613980565b91507f455243373231456e756d657261626c653a20676c6f62616c20696e646578206f60008301527f7574206f6620626f756e647300000000000000000000000000000000000000006020830152604082019050919050565b60006134cd602083613980565b91507f43616e6e6f74206d696e74206d6f7265207468616e204d41585f535550504c596000830152602082019050919050565b61350981613ac1565b82525050565b600061351b8285612d55565b91506135278284612ceb565b91508190509392505050565b600061353f8284612d55565b915061354a826131dc565b915081905092915050565b600060208201905061356a6000830184612c94565b92915050565b60006080820190506135856000830187612c94565b6135926020830186612c94565b61359f6040830185613500565b81810360608301526135b18184612cb2565b905095945050505050565b60006040820190506135d16000830185612c94565b6135de6020830184613500565b9392505050565b60006020820190506135fa6000830184612ca3565b92915050565b6000602082019050818103600083015261361a8184612d1c565b905092915050565b6000602082019050818103600083015261363b81612d86565b9050919050565b6000602082019050818103600083015261365b81612dec565b9050919050565b6000602082019050818103600083015261367b81612e52565b9050919050565b6000602082019050818103600083015261369b81612eb8565b9050919050565b600060208201905081810360008301526136bb81612ef8565b9050919050565b600060208201905081810360008301526136db81612f5e565b9050919050565b600060208201905081810360008301526136fb81612f9e565b9050919050565b6000602082019050818103600083015261371b81613004565b9050919050565b6000602082019050818103600083015261373b8161306a565b9050919050565b6000602082019050818103600083015261375b816130d0565b9050919050565b6000602082019050818103600083015261377b81613136565b9050919050565b6000602082019050818103600083015261379b81613176565b9050919050565b600060208201905081810360008301526137bb8161321c565b9050919050565b600060208201905081810360008301526137db81613282565b9050919050565b600060208201905081810360008301526137fb816132c2565b9050919050565b6000602082019050818103600083015261381b81613328565b9050919050565b6000602082019050818103600083015261383b8161338e565b9050919050565b6000602082019050818103600083015261385b816133f4565b9050919050565b6000602082019050818103600083015261387b8161345a565b9050919050565b6000602082019050818103600083015261389b816134c0565b9050919050565b60006020820190506138b76000830184613500565b92915050565b6000604051905081810181811067ffffffffffffffff821117156138e4576138e3613c46565b5b8060405250919050565b600067ffffffffffffffff82111561390957613908613c46565b5b601f19601f8301169050602081019050919050565b600067ffffffffffffffff82111561393957613938613c46565b5b601f19601f8301169050602081019050919050565b600081519050919050565b600081519050919050565b600082825260208201905092915050565b600081905092915050565b600082825260208201905092915050565b600081905092915050565b60006139a782613ac1565b91506139b283613ac1565b9250827fffffffffffffffffffffffffffffffffffffffffffffffffffffffffffffffff038211156139e7576139e6613bb9565b5b828201905092915050565b60006139fd82613ac1565b9150613a0883613ac1565b925082613a1857613a17613be8565b5b828204905092915050565b6000613a2e82613ac1565b9150613a3983613ac1565b925082821015613a4c57613a4b613bb9565b5b828203905092915050565b6000613a6282613aa1565b9050919050565b60008115159050919050565b60007fffffffff0000000000000000000000000000000000000000000000000000000082169050919050565b600073ffffffffffffffffffffffffffffffffffffffff82169050919050565b6000819050919050565b82818337600083830152505050565b60005b83811015613af8578082015181840152602081019050613add565b83811115613b07576000848401525b50505050565b60006002820490506001821680613b2557607f821691505b60208210811415613b3957613b38613c17565b5b50919050565b6000613b4a82613ac1565b91507fffffffffffffffffffffffffffffffffffffffffffffffffffffffffffffffff821415613b7d57613b7c613bb9565b5b600182019050919050565b6000613b9382613ac1565b9150613b9e83613ac1565b925082613bae57613bad613be8565b5b828206905092915050565b7f4e487b7100000000000000000000000000000000000000000000000000000000600052601160045260246000fd5b7f4e487b7100000000000000000000000000000000000000000000000000000000600052601260045260246000fd5b7f4e487b7100000000000000000000000000000000000000000000000000000000600052602260045260246000fd5b7f4e487b7100000000000000000000000000000000000000000000000000000000600052604160045260246000fd5b6000601f19601f8301169050919050565b613c8f81613a57565b8114613c9a57600080fd5b50565b613ca681613a69565b8114613cb157600080fd5b50565b613cbd81613a75565b8114613cc857600080fd5b50565b613cd481613ac1565b8114613cdf57600080fd5b5056fea26469706673582212206a1b445eeaec1ea995fdf4460353ba6c5593e2f53c3fc09018b380a3c26b080764736f6c63430008000033",
  "immutableReferences": {},
  "source": "// SPDX-License-Identifier: MIT\r\n\r\npragma solidity ^0.8.0;\r\n\r\nimport \"./ERC721Enumerable.sol\";\r\nimport \"./utils/Ownable.sol\";\r\n\r\ncontract TreeSpotNFT is ERC721Enumerable, Ownable {\r\n    //MAX TreeSpotNFT Supply\r\n    uint256 public MAX_SUPPLY = 15;\r\n\r\n    //Names of TreeSpotNFT token\r\n    mapping(uint256 => string) private _tokenNames;\r\n\r\n    event NewTreeSpotNFTMinted(address user, uint256 tokenId); // Emits when new token minted.\r\n\r\n    /**\r\n     * @dev Initializes the contract by setting a `name` and a `symbol` to the token collection.\r\n     */\r\n    constructor() ERC721(\"TreeSpotNFT\", \"TSN\") {\r\n    }\r\n\r\n    /**\r\n     * @dev Set Max Nft Supply of the token collection.\r\n     * @param maxNftSupply MAX TreeSpotNFT Supply\r\n     * Can only be called by the owner of contract.\r\n     */\r\n    function setMaxSupply(uint256 maxNftSupply) public onlyOwner {\r\n        MAX_SUPPLY = maxNftSupply;\r\n    }\r\n\r\n    /**\r\n     * @dev Set Base URI of the token collection.\r\n     * @param baseURI base URI of the token collection\r\n     * Can only be called by the owner of contract.\r\n     */\r\n    function setBaseURI(string memory baseURI) public onlyOwner {\r\n        _setBaseURI(baseURI);\r\n    }\r\n\r\n    /**\r\n     * @dev Set Token URI of the specific tokenId.\r\n     * @param tokenId Specific tokenId.\r\n     * @param tokenURI new TokenURI of the tokenId.\r\n     * Can only be called by the owner of the tokenId.\r\n     */\r\n    function setTokenURI(uint256 tokenId, string memory tokenURI) public {\r\n        require(_isApprovedOrOwner(_msgSender(), tokenId), \"ERC721: transfer caller is not owner nor approved\");\r\n\r\n        _setTokenURI(tokenId, tokenURI);\r\n    }\r\n\r\n    /**\r\n     * @dev Get Name of TreeSpotNFT token.\r\n     * @param tokenId Specific tokenId\r\n     * @return Name of TreeSpotNFT token.\r\n     */\r\n    function tokenName(uint256 tokenId) public view returns(string memory) {\r\n        require(_exists(tokenId), \"ERC721Metadata: URI query for nonexistent token\");\r\n\r\n        return _tokenNames[tokenId];\r\n    }\r\n\r\n    /**\r\n     * @dev Set Name of the specific tokenId.\r\n     * @param tokenId Specific tokenId.\r\n     * @param _tokenName new Name of the tokenId.\r\n     * Can only be called by the owner of the tokenId.\r\n     */\r\n    function setTokenName(uint256 tokenId, string memory _tokenName) public {\r\n        require(_isApprovedOrOwner(_msgSender(), tokenId), \"ERC721: transfer caller is not owner nor approved\");\r\n        require(_exists(tokenId), \"ERC721Metadata: URI set of nonexistent token\");\r\n        \r\n        _tokenNames[tokenId] = _tokenName;\r\n    }\r\n\r\n    /**\r\n     * @dev Mint new NFT.\r\n     * @param _tokenName Name of the new NFT\r\n     * Requirements\r\n     * - totalSupply <= MAX_SUPPLY\r\n     * - Can only be called by the owner of contract.\r\n     */\r\n    function mintNFT(string memory _tokenName) public onlyOwner {\r\n        require(totalSupply() < MAX_SUPPLY, \"Cannot mint more than MAX_SUPPLY\");\r\n\r\n        uint tokenId = totalSupply() + 1;\r\n        _safeMint(_msgSender(), tokenId);\r\n        setTokenName(tokenId, _tokenName);\r\n        emit NewTreeSpotNFTMinted(_msgSender(), tokenId);\r\n    }\r\n}\r\n",
  "sourcePath": "D:\\Projects\\TreeSpot\\treeSpotExam\\contracts\\TreeSpotNFT.sol",
  "compiler": {
    "name": "solc",
    "version": "0.8.0+commit.c7dfd78e.Emscripten.clang"
  },
  "schemaVersion": "3.4.3",
  "updatedAt": "2021-09-23T06:02:40.623Z",
  "devdoc": {
    "kind": "dev",
    "methods": {
      "approve(address,uint256)": {
        "details": "See {IERC721-approve}."
      },
      "balanceOf(address)": {
        "details": "See {IERC721-balanceOf}."
      },
      "constructor": {
        "details": "Initializes the contract by setting a `name` and a `symbol` to the token collection."
      },
      "getApproved(uint256)": {
        "details": "See {IERC721-getApproved}."
      },
      "isApprovedForAll(address,address)": {
        "details": "See {IERC721-isApprovedForAll}."
      },
      "mintNFT(string)": {
        "details": "Mint new NFT.",
        "params": {
          "_tokenName": "Name of the new NFT Requirements - totalSupply <= MAX_SUPPLY - Can only be called by the owner of contract."
        }
      },
      "name()": {
        "details": "See {IERC721Metadata-name}."
      },
      "owner()": {
        "details": "Returns the address of the current owner."
      },
      "ownerOf(uint256)": {
        "details": "See {IERC721-ownerOf}."
      },
      "renounceOwnership()": {
        "details": "Leaves the contract without owner. It will not be possible to call `onlyOwner` functions anymore. Can only be called by the current owner. NOTE: Renouncing ownership will leave the contract without an owner, thereby removing any functionality that is only available to the owner."
      },
      "safeTransferFrom(address,address,uint256)": {
        "details": "See {IERC721-safeTransferFrom}."
      },
      "safeTransferFrom(address,address,uint256,bytes)": {
        "details": "See {IERC721-safeTransferFrom}."
      },
      "setApprovalForAll(address,bool)": {
        "details": "See {IERC721-setApprovalForAll}."
      },
      "setBaseURI(string)": {
        "details": "Set Base URI of the token collection.",
        "params": {
          "baseURI": "base URI of the token collection Can only be called by the owner of contract."
        }
      },
      "setMaxSupply(uint256)": {
        "details": "Set Max Nft Supply of the token collection.",
        "params": {
          "maxNftSupply": "MAX TreeSpotNFT Supply Can only be called by the owner of contract."
        }
      },
      "setTokenName(uint256,string)": {
        "details": "Set Name of the specific tokenId.",
        "params": {
          "_tokenName": "new Name of the tokenId. Can only be called by the owner of the tokenId.",
          "tokenId": "Specific tokenId."
        }
      },
      "setTokenURI(uint256,string)": {
        "details": "Set Token URI of the specific tokenId.",
        "params": {
          "tokenId": "Specific tokenId.",
          "tokenURI": "new TokenURI of the tokenId. Can only be called by the owner of the tokenId."
        }
      },
      "supportsInterface(bytes4)": {
        "details": "See {IERC165-supportsInterface}."
      },
      "symbol()": {
        "details": "See {IERC721Metadata-symbol}."
      },
      "tokenByIndex(uint256)": {
        "details": "See {IERC721Enumerable-tokenByIndex}."
      },
      "tokenName(uint256)": {
        "details": "Get Name of TreeSpotNFT token.",
        "params": {
          "tokenId": "Specific tokenId"
        },
        "returns": {
          "_0": "Name of TreeSpotNFT token."
        }
      },
      "tokenOfOwnerByIndex(address,uint256)": {
        "details": "See {IERC721Enumerable-tokenOfOwnerByIndex}."
      },
      "tokenURI(uint256)": {
        "details": "See {IERC721Metadata-tokenURI}."
      },
      "totalSupply()": {
        "details": "See {IERC721Enumerable-totalSupply}."
      },
      "transferFrom(address,address,uint256)": {
        "details": "See {IERC721-transferFrom}."
      },
      "transferOwnership(address)": {
        "details": "Transfers ownership of the contract to a new account (`newOwner`). Can only be called by the current owner."
      }
    },
    "version": 1
  },
  "userdoc": {
    "kind": "user",
    "methods": {},
    "version": 1
  }
}